{
  "_format": "hh-sol-artifact-1",
  "contractName": "Products",
  "sourceName": "contracts/Products.sol",
  "abi": [
    {
      "inputs": [],
      "stateMutability": "nonpayable",
      "type": "constructor"
    },
    {
      "anonymous": false,
      "inputs": [
        {
          "indexed": true,
          "internalType": "address",
          "name": "from",
          "type": "address"
        },
        {
          "indexed": true,
          "internalType": "address",
          "name": "to",
          "type": "address"
        },
        {
          "indexed": true,
          "internalType": "uint256",
          "name": "tokenId",
          "type": "uint256"
        }
      ],
      "name": "Transfer",
      "type": "event"
    },
    {
      "inputs": [
        {
          "internalType": "uint256",
          "name": "tokenId",
          "type": "uint256"
        }
      ],
      "name": "burnToken",
      "outputs": [],
      "stateMutability": "nonpayable",
      "type": "function"
    },
    {
      "inputs": [
        {
          "internalType": "uint256",
          "name": "itemId",
          "type": "uint256"
        }
      ],
      "name": "buyProduct",
      "outputs": [],
      "stateMutability": "payable",
      "type": "function"
    },
    {
      "inputs": [
        {
          "internalType": "string",
          "name": "title",
          "type": "string"
        },
        {
          "internalType": "string",
          "name": "description",
          "type": "string"
        },
        {
          "internalType": "string",
          "name": "brand",
          "type": "string"
        },
        {
          "internalType": "string",
          "name": "category",
          "type": "string"
        },
        {
          "internalType": "uint256",
          "name": "price",
          "type": "uint256"
        },
        {
          "internalType": "uint8",
          "name": "warrantyPeriod",
          "type": "uint8"
        },
        {
          "internalType": "uint256[]",
          "name": "serialNos",
          "type": "uint256[]"
        }
      ],
      "name": "createProduct",
      "outputs": [],
      "stateMutability": "payable",
      "type": "function"
    },
    {
      "inputs": [
        {
          "internalType": "uint256",
          "name": "itemId",
          "type": "uint256"
        }
      ],
      "name": "getLastToken",
      "outputs": [
        {
          "internalType": "uint256",
          "name": "",
          "type": "uint256"
        }
      ],
      "stateMutability": "view",
      "type": "function"
    },
    {
      "inputs": [],
      "name": "getMyProducts",
      "outputs": [
        {
          "components": [
            {
              "internalType": "uint256",
              "name": "itemId",
              "type": "uint256"
            },
            {
              "internalType": "string",
              "name": "title",
              "type": "string"
            },
            {
              "internalType": "string",
              "name": "description",
              "type": "string"
            },
            {
              "internalType": "string",
              "name": "brand",
              "type": "string"
            },
            {
              "internalType": "string",
              "name": "category",
              "type": "string"
            },
            {
              "internalType": "uint256",
              "name": "price",
              "type": "uint256"
            },
            {
              "internalType": "uint8",
              "name": "warrantyPeriod",
              "type": "uint8"
            },
            {
              "internalType": "uint256",
              "name": "warrantyEndDate",
              "type": "uint256"
            },
            {
              "internalType": "uint256[]",
              "name": "tokenIds",
              "type": "uint256[]"
            },
            {
              "internalType": "address payable",
              "name": "seller",
              "type": "address"
            },
            {
              "internalType": "address payable",
              "name": "owner",
              "type": "address"
            },
            {
              "internalType": "bool",
              "name": "warrantyExpired",
              "type": "bool"
            }
          ],
          "internalType": "struct Products.Product[]",
          "name": "",
          "type": "tuple[]"
        }
      ],
      "stateMutability": "view",
      "type": "function"
    },
    {
      "inputs": [
        {
          "internalType": "uint256",
          "name": "itemId",
          "type": "uint256"
        }
      ],
      "name": "getProductById",
      "outputs": [
        {
          "components": [
            {
              "internalType": "uint256",
              "name": "itemId",
              "type": "uint256"
            },
            {
              "internalType": "string",
              "name": "title",
              "type": "string"
            },
            {
              "internalType": "string",
              "name": "description",
              "type": "string"
            },
            {
              "internalType": "string",
              "name": "brand",
              "type": "string"
            },
            {
              "internalType": "string",
              "name": "category",
              "type": "string"
            },
            {
              "internalType": "uint256",
              "name": "price",
              "type": "uint256"
            },
            {
              "internalType": "uint8",
              "name": "warrantyPeriod",
              "type": "uint8"
            },
            {
              "internalType": "uint256",
              "name": "warrantyEndDate",
              "type": "uint256"
            },
            {
              "internalType": "uint256[]",
              "name": "tokenIds",
              "type": "uint256[]"
            },
            {
              "internalType": "address payable",
              "name": "seller",
              "type": "address"
            },
            {
              "internalType": "address payable",
              "name": "owner",
              "type": "address"
            },
            {
              "internalType": "bool",
              "name": "warrantyExpired",
              "type": "bool"
            }
          ],
          "internalType": "struct Products.Product",
          "name": "",
          "type": "tuple"
        }
      ],
      "stateMutability": "view",
      "type": "function"
    },
    {
      "inputs": [
        {
          "internalType": "uint256",
          "name": "tokenId",
          "type": "uint256"
        }
      ],
      "name": "getProductByTokenId",
      "outputs": [
        {
          "components": [
            {
              "internalType": "uint256",
              "name": "itemId",
              "type": "uint256"
            },
            {
              "internalType": "string",
              "name": "title",
              "type": "string"
            },
            {
              "internalType": "string",
              "name": "description",
              "type": "string"
            },
            {
              "internalType": "string",
              "name": "brand",
              "type": "string"
            },
            {
              "internalType": "string",
              "name": "category",
              "type": "string"
            },
            {
              "internalType": "uint256",
              "name": "price",
              "type": "uint256"
            },
            {
              "internalType": "uint8",
              "name": "warrantyPeriod",
              "type": "uint8"
            },
            {
              "internalType": "uint256",
              "name": "warrantyEndDate",
              "type": "uint256"
            },
            {
              "internalType": "uint256[]",
              "name": "tokenIds",
              "type": "uint256[]"
            },
            {
              "internalType": "address payable",
              "name": "seller",
              "type": "address"
            },
            {
              "internalType": "address payable",
              "name": "owner",
              "type": "address"
            },
            {
              "internalType": "bool",
              "name": "warrantyExpired",
              "type": "bool"
            }
          ],
          "internalType": "struct Products.Product",
          "name": "",
          "type": "tuple"
        }
      ],
      "stateMutability": "view",
      "type": "function"
    },
    {
      "inputs": [],
      "name": "getProducts",
      "outputs": [
        {
          "components": [
            {
              "internalType": "uint256",
              "name": "itemId",
              "type": "uint256"
            },
            {
              "internalType": "string",
              "name": "title",
              "type": "string"
            },
            {
              "internalType": "string",
              "name": "description",
              "type": "string"
            },
            {
              "internalType": "string",
              "name": "brand",
              "type": "string"
            },
            {
              "internalType": "string",
              "name": "category",
              "type": "string"
            },
            {
              "internalType": "uint256",
              "name": "price",
              "type": "uint256"
            },
            {
              "internalType": "uint8",
              "name": "warrantyPeriod",
              "type": "uint8"
            },
            {
              "internalType": "uint256",
              "name": "warrantyEndDate",
              "type": "uint256"
            },
            {
              "internalType": "uint256[]",
              "name": "tokenIds",
              "type": "uint256[]"
            },
            {
              "internalType": "address payable",
              "name": "seller",
              "type": "address"
            },
            {
              "internalType": "address payable",
              "name": "owner",
              "type": "address"
            },
            {
              "internalType": "bool",
              "name": "warrantyExpired",
              "type": "bool"
            }
          ],
          "internalType": "struct Products.Product[]",
          "name": "",
          "type": "tuple[]"
        }
      ],
      "stateMutability": "view",
      "type": "function"
    },
    {
      "inputs": [
        {
          "internalType": "uint256",
          "name": "tokenId",
          "type": "uint256"
        }
      ],
      "name": "getTokenOwner",
      "outputs": [
        {
          "internalType": "address",
          "name": "",
          "type": "address"
        }
      ],
      "stateMutability": "view",
      "type": "function"
    },
    {
      "inputs": [
        {
          "internalType": "address",
          "name": "nftAddress",
          "type": "address"
        }
      ],
      "name": "setNFTContract",
      "outputs": [],
      "stateMutability": "nonpayable",
      "type": "function"
    },
    {
      "inputs": [
        {
          "internalType": "uint256",
          "name": "itemId",
          "type": "uint256"
        },
        {
          "internalType": "address payable",
          "name": "receiver",
          "type": "address"
        }
      ],
      "name": "transferProduct",
      "outputs": [],
      "stateMutability": "payable",
      "type": "function"
    },
    {
      "inputs": [],
      "name": "validateWarranty",
      "outputs": [],
      "stateMutability": "nonpayable",
      "type": "function"
    }
  ],
  "bytecode": "0x608060405234801561001057600080fd5b50600160008190555033600260006101000a81548173ffffffffffffffffffffffffffffffffffffffff021916908373ffffffffffffffffffffffffffffffffffffffff160217905550613dda806100696000396000f3fe6080604052600436106100a75760003560e01c8063a35d05ec11610064578063a35d05ec1461019e578063a5cd761f146101db578063a7ccabdf14610218578063c29b2f2014610241578063e43059e51461026c578063fdca4ca314610288576100a7565b8063057dfcb1146100ac578063132b2564146100e95780633f70c2b4146101055780634d4afb8a146101425780637b47ec1a146101595780638642269e14610182575b600080fd5b3480156100b857600080fd5b506100d360048036038101906100ce9190612cd3565b6102b3565b6040516100e09190612fef565b60405180910390f35b61010360048036038101906100fe919061323a565b610756565b005b34801561011157600080fd5b5061012c60048036038101906101279190612cd3565b610b00565b6040516101399190612fef565b60405180910390f35b34801561014e57600080fd5b50610157610f22565b005b34801561016557600080fd5b50610180600480360381019061017b9190612cd3565b61107f565b005b61019c60048036038101906101979190612cd3565b611227565b005b3480156101aa57600080fd5b506101c560048036038101906101c09190612cd3565b611aae565b6040516101d29190613377565b60405180910390f35b3480156101e757600080fd5b5061020260048036038101906101fd9190612cd3565b611b14565b60405161020f91906133b3565b60405180910390f35b34801561022457600080fd5b5061023f600480360381019061023a91906133fa565b611bc8565b005b34801561024d57600080fd5b50610256611c0c565b6040516102639190613609565b60405180910390f35b61028660048036038101906102819190613657565b612197565b005b34801561029457600080fd5b5061029d612517565b6040516102aa9190613609565b60405180910390f35b6102bb612b07565b60006102c76001612ae3565b90506102d1612b07565b6000600190505b82811161074b576000600460008381526020019081526020016000206008018054905011156107385760005b6004600083815260200190815260200160002060080180549050811015610736578560046000848152602001908152602001600020600801828154811061034e5761034d613697565b5b9060005260206000200154141561072357600460008381526020019081526020016000206040518061018001604052908160008201548152602001600182018054610398906136f5565b80601f01602080910402602001604051908101604052809291908181526020018280546103c4906136f5565b80156104115780601f106103e657610100808354040283529160200191610411565b820191906000526020600020905b8154815290600101906020018083116103f457829003601f168201915b5050505050815260200160028201805461042a906136f5565b80601f0160208091040260200160405190810160405280929190818152602001828054610456906136f5565b80156104a35780601f10610478576101008083540402835291602001916104a3565b820191906000526020600020905b81548152906001019060200180831161048657829003601f168201915b505050505081526020016003820180546104bc906136f5565b80601f01602080910402602001604051908101604052809291908181526020018280546104e8906136f5565b80156105355780601f1061050a57610100808354040283529160200191610535565b820191906000526020600020905b81548152906001019060200180831161051857829003601f168201915b5050505050815260200160048201805461054e906136f5565b80601f016020809104026020016040519081016040528092919081815260200182805461057a906136f5565b80156105c75780601f1061059c576101008083540402835291602001916105c7565b820191906000526020600020905b8154815290600101906020018083116105aa57829003601f168201915b50505050508152602001600582015481526020016006820160009054906101000a900460ff1660ff1660ff168152602001600782015481526020016008820180548060200260200160405190810160405280929190818152602001828054801561065057602002820191906000526020600020905b81548152602001906001019080831161063c575b505050505081526020016009820160009054906101000a900473ffffffffffffffffffffffffffffffffffffffff1673ffffffffffffffffffffffffffffffffffffffff1673ffffffffffffffffffffffffffffffffffffffff168152602001600a820160009054906101000a900473ffffffffffffffffffffffffffffffffffffffff1673ffffffffffffffffffffffffffffffffffffffff1673ffffffffffffffffffffffffffffffffffffffff168152602001600a820160149054906101000a900460ff16151515158152505092505b808061072e90613756565b915050610304565b505b808061074390613756565b9150506102d8565b508092505050919050565b6002600054141561079c576040517f08c379a0000000000000000000000000000000000000000000000000000000008152600401610793906137fc565b60405180910390fd5b6002600081905550600083116107e7576040517f08c379a00000000000000000000000000000000000000000000000000000000081526004016107de90613868565b60405180910390fd5b6107f16001612af1565b60006107fd6001612ae3565b90506040518061018001604052808281526020018981526020018881526020018781526020018681526020018581526020018460ff168152602001600081526020018381526020013373ffffffffffffffffffffffffffffffffffffffff168152602001600073ffffffffffffffffffffffffffffffffffffffff16815260200160001515815250600460008381526020019081526020016000206000820151816000015560208201518160010190805190602001906108be929190612b99565b5060408201518160020190805190602001906108db929190612b99565b5060608201518160030190805190602001906108f8929190612b99565b506080820151816004019080519060200190610915929190612b99565b5060a0820151816005015560c08201518160060160006101000a81548160ff021916908360ff16021790555060e08201518160070155610100820151816008019080519060200190610968929190612c1f565b506101208201518160090160006101000a81548173ffffffffffffffffffffffffffffffffffffffff021916908373ffffffffffffffffffffffffffffffffffffffff16021790555061014082015181600a0160006101000a81548173ffffffffffffffffffffffffffffffffffffffff021916908373ffffffffffffffffffffffffffffffffffffffff16021790555061016082015181600a0160146101000a81548160ff02191690831515021790555090505060005b82518160ff161015610aed57600360009054906101000a900473ffffffffffffffffffffffffffffffffffffffff1673ffffffffffffffffffffffffffffffffffffffff166323b872dd3330868560ff1681518110610a8257610a81613697565b5b60200260200101516040518463ffffffff1660e01b8152600401610aa893929190613888565b600060405180830381600087803b158015610ac257600080fd5b505af1158015610ad6573d6000803e3d6000fd5b505050508080610ae5906138bf565b915050610a20565b5050600160008190555050505050505050565b610b08612b07565b6000610b146001612ae3565b905082811015610b59576040517f08c379a0000000000000000000000000000000000000000000000000000000008152600401610b5090613935565b60405180910390fd5b600460008481526020019081526020016000206040518061018001604052908160008201548152602001600182018054610b92906136f5565b80601f0160208091040260200160405190810160405280929190818152602001828054610bbe906136f5565b8015610c0b5780601f10610be057610100808354040283529160200191610c0b565b820191906000526020600020905b815481529060010190602001808311610bee57829003601f168201915b50505050508152602001600282018054610c24906136f5565b80601f0160208091040260200160405190810160405280929190818152602001828054610c50906136f5565b8015610c9d5780601f10610c7257610100808354040283529160200191610c9d565b820191906000526020600020905b815481529060010190602001808311610c8057829003601f168201915b50505050508152602001600382018054610cb6906136f5565b80601f0160208091040260200160405190810160405280929190818152602001828054610ce2906136f5565b8015610d2f5780601f10610d0457610100808354040283529160200191610d2f565b820191906000526020600020905b815481529060010190602001808311610d1257829003601f168201915b50505050508152602001600482018054610d48906136f5565b80601f0160208091040260200160405190810160405280929190818152602001828054610d74906136f5565b8015610dc15780601f10610d9657610100808354040283529160200191610dc1565b820191906000526020600020905b815481529060010190602001808311610da457829003601f168201915b50505050508152602001600582015481526020016006820160009054906101000a900460ff1660ff1660ff1681526020016007820154815260200160088201805480602002602001604051908101604052809291908181526020018280548015610e4a57602002820191906000526020600020905b815481526020019060010190808311610e36575b505050505081526020016009820160009054906101000a900473ffffffffffffffffffffffffffffffffffffffff1673ffffffffffffffffffffffffffffffffffffffff1673ffffffffffffffffffffffffffffffffffffffff168152602001600a820160009054906101000a900473ffffffffffffffffffffffffffffffffffffffff1673ffffffffffffffffffffffffffffffffffffffff1673ffffffffffffffffffffffffffffffffffffffff168152602001600a820160149054906101000a900460ff161515151581525050915050919050565b600042905060005b610f346001612ae3565b81101561107b5760046000600183610f4c9190613955565b8152602001908152602001600020600a0160009054906101000a900473ffffffffffffffffffffffffffffffffffffffff1673ffffffffffffffffffffffffffffffffffffffff163373ffffffffffffffffffffffffffffffffffffffff16148015610fd9575060046000600183610fc49190613955565b81526020019081526020016000206007015482115b1561106857600060046000600184610ff19190613955565b815260200190815260200160002060080160008154811061101557611014613697565b5b9060005260206000200154905061102b8161107f565b60016004600060018561103e9190613955565b8152602001908152602001600020600a0160146101000a81548160ff021916908315150217905550505b808061107390613756565b915050610f2a565b5050565b600360009054906101000a900473ffffffffffffffffffffffffffffffffffffffff1673ffffffffffffffffffffffffffffffffffffffff1663a5cd761f826040518263ffffffff1660e01b81526004016110da9190613377565b60206040518083038186803b1580156110f257600080fd5b505afa158015611106573d6000803e3d6000fd5b505050506040513d601f19601f8201168201806040525081019061112a91906139c0565b73ffffffffffffffffffffffffffffffffffffffff163373ffffffffffffffffffffffffffffffffffffffff1614611197576040517f08c379a000000000000000000000000000000000000000000000000000000000815260040161118e90613a5f565b60405180910390fd5b600360009054906101000a900473ffffffffffffffffffffffffffffffffffffffff1673ffffffffffffffffffffffffffffffffffffffff16637b47ec1a826040518263ffffffff1660e01b81526004016111f29190613377565b600060405180830381600087803b15801561120c57600080fd5b505af1158015611220573d6000803e3d6000fd5b5050505050565b6002600054141561126d576040517f08c379a0000000000000000000000000000000000000000000000000000000008152600401611264906137fc565b60405180910390fd5b600260008190555060006004600083815260200190815260200160002090506000816005015490508034146112d7576040517f08c379a00000000000000000000000000000000000000000000000000000000081526004016112ce90613af1565b60405180910390fd5b6000826008018054905011611321576040517f08c379a000000000000000000000000000000000000000000000000000000000815260040161131890613b5d565b60405180910390fd5b8160090160009054906101000a900473ffffffffffffffffffffffffffffffffffffffff1673ffffffffffffffffffffffffffffffffffffffff163373ffffffffffffffffffffffffffffffffffffffff1614156113b4576040517f08c379a00000000000000000000000000000000000000000000000000000000081526004016113ab90613bef565b60405180910390fd5b600082600801600184600801805490506113ce9190613c0f565b815481106113df576113de613697565b5b906000526020600020015490506004600085815260200190815260200160002060080180548061141257611411613c43565b5b600190038181906000526020600020016000905590556000600167ffffffffffffffff8111156114455761144461301b565b5b6040519080825280602002602001820160405280156114735781602001602082028036833780820191505090505b509050818160008151811061148b5761148a613697565b5b6020026020010181815250506000603c806018601e8860060160009054906101000a900460ff1660ff166114bf9190613c72565b6114c99190613c72565b6114d39190613c72565b6114dd9190613c72565b426114e89190613955565b9050600360009054906101000a900473ffffffffffffffffffffffffffffffffffffffff1673ffffffffffffffffffffffffffffffffffffffff166323b872dd3033866040518463ffffffff1660e01b815260040161154993929190613888565b600060405180830381600087803b15801561156357600080fd5b505af1158015611577573d6000803e3d6000fd5b505050506115856001612af1565b60006115916001612ae3565b905060006040518061018001604052808381526020018860010180546115b6906136f5565b80601f01602080910402602001604051908101604052809291908181526020018280546115e2906136f5565b801561162f5780601f106116045761010080835404028352916020019161162f565b820191906000526020600020905b81548152906001019060200180831161161257829003601f168201915b50505050508152602001886002018054611648906136f5565b80601f0160208091040260200160405190810160405280929190818152602001828054611674906136f5565b80156116c15780601f10611696576101008083540402835291602001916116c1565b820191906000526020600020905b8154815290600101906020018083116116a457829003601f168201915b505050505081526020018860030180546116da906136f5565b80601f0160208091040260200160405190810160405280929190818152602001828054611706906136f5565b80156117535780601f1061172857610100808354040283529160200191611753565b820191906000526020600020905b81548152906001019060200180831161173657829003601f168201915b5050505050815260200188600401805461176c906136f5565b80601f0160208091040260200160405190810160405280929190818152602001828054611798906136f5565b80156117e55780601f106117ba576101008083540402835291602001916117e5565b820191906000526020600020905b8154815290600101906020018083116117c857829003601f168201915b50505050508152602001886005015481526020018860060160009054906101000a900460ff1660ff1681526020018481526020018581526020018860090160009054906101000a900473ffffffffffffffffffffffffffffffffffffffff1673ffffffffffffffffffffffffffffffffffffffff1681526020013373ffffffffffffffffffffffffffffffffffffffff16815260200160001515815250905080600460008481526020019081526020016000206000820151816000015560208201518160010190805190602001906118be929190612b99565b5060408201518160020190805190602001906118db929190612b99565b5060608201518160030190805190602001906118f8929190612b99565b506080820151816004019080519060200190611915929190612b99565b5060a0820151816005015560c08201518160060160006101000a81548160ff021916908360ff16021790555060e08201518160070155610100820151816008019080519060200190611968929190612c1f565b506101208201518160090160006101000a81548173ffffffffffffffffffffffffffffffffffffffff021916908373ffffffffffffffffffffffffffffffffffffffff16021790555061014082015181600a0160006101000a81548173ffffffffffffffffffffffffffffffffffffffff021916908373ffffffffffffffffffffffffffffffffffffffff16021790555061016082015181600a0160146101000a81548160ff021916908315150217905550905050843373ffffffffffffffffffffffffffffffffffffffff168860090160009054906101000a900473ffffffffffffffffffffffffffffffffffffffff1673ffffffffffffffffffffffffffffffffffffffff167fddf252ad1be2c89b69c2b068fc378daa952ba7f163c4a11628f55a4df523b3ef60405160405180910390a450505050505050600160008190555050565b6000806004600084815260200190815260200160002060080160016004600086815260200190815260200160002060080180549050611aed9190613c0f565b81548110611afe57611afd613697565b5b9060005260206000200154905080915050919050565b6000600360009054906101000a900473ffffffffffffffffffffffffffffffffffffffff1673ffffffffffffffffffffffffffffffffffffffff1663a5cd761f836040518263ffffffff1660e01b8152600401611b719190613377565b60206040518083038186803b158015611b8957600080fd5b505afa158015611b9d573d6000803e3d6000fd5b505050506040513d601f19601f82011682018060405250810190611bc191906139c0565b9050919050565b80600360006101000a81548173ffffffffffffffffffffffffffffffffffffffff021916908373ffffffffffffffffffffffffffffffffffffffff16021790555050565b60606000611c1a6001612ae3565b9050600080600190505b828111611cb857600073ffffffffffffffffffffffffffffffffffffffff1660046000838152602001908152602001600020600a0160009054906101000a900473ffffffffffffffffffffffffffffffffffffffff1673ffffffffffffffffffffffffffffffffffffffff161415611ca5578180611ca190613756565b9250505b8080611cb090613756565b915050611c24565b5060008167ffffffffffffffff811115611cd557611cd461301b565b5b604051908082528060200260200182016040528015611d0e57816020015b611cfb612b07565b815260200190600190039081611cf35790505b509050600080600190505b84811161218c57600073ffffffffffffffffffffffffffffffffffffffff1660046000838152602001908152602001600020600a0160009054906101000a900473ffffffffffffffffffffffffffffffffffffffff1673ffffffffffffffffffffffffffffffffffffffff16141561217957600460008281526020019081526020016000206040518061018001604052908160008201548152602001600182018054611dc4906136f5565b80601f0160208091040260200160405190810160405280929190818152602001828054611df0906136f5565b8015611e3d5780601f10611e1257610100808354040283529160200191611e3d565b820191906000526020600020905b815481529060010190602001808311611e2057829003601f168201915b50505050508152602001600282018054611e56906136f5565b80601f0160208091040260200160405190810160405280929190818152602001828054611e82906136f5565b8015611ecf5780601f10611ea457610100808354040283529160200191611ecf565b820191906000526020600020905b815481529060010190602001808311611eb257829003601f168201915b50505050508152602001600382018054611ee8906136f5565b80601f0160208091040260200160405190810160405280929190818152602001828054611f14906136f5565b8015611f615780601f10611f3657610100808354040283529160200191611f61565b820191906000526020600020905b815481529060010190602001808311611f4457829003601f168201915b50505050508152602001600482018054611f7a906136f5565b80601f0160208091040260200160405190810160405280929190818152602001828054611fa6906136f5565b8015611ff35780601f10611fc857610100808354040283529160200191611ff3565b820191906000526020600020905b815481529060010190602001808311611fd657829003601f168201915b50505050508152602001600582015481526020016006820160009054906101000a900460ff1660ff1660ff168152602001600782015481526020016008820180548060200260200160405190810160405280929190818152602001828054801561207c57602002820191906000526020600020905b815481526020019060010190808311612068575b505050505081526020016009820160009054906101000a900473ffffffffffffffffffffffffffffffffffffffff1673ffffffffffffffffffffffffffffffffffffffff1673ffffffffffffffffffffffffffffffffffffffff168152602001600a820160009054906101000a900473ffffffffffffffffffffffffffffffffffffffff1673ffffffffffffffffffffffffffffffffffffffff1673ffffffffffffffffffffffffffffffffffffffff168152602001600a820160149054906101000a900460ff16151515158152505083838151811061215f5761215e613697565b5b6020026020010181905250818061217590613756565b9250505b808061218490613756565b915050611d19565b508194505050505090565b600260005414156121dd576040517f08c379a00000000000000000000000000000000000000000000000000000000081526004016121d4906137fc565b60405180910390fd5b6002600081905550600060046000848152602001908152602001600020905080600a0160009054906101000a900473ffffffffffffffffffffffffffffffffffffffff1673ffffffffffffffffffffffffffffffffffffffff163373ffffffffffffffffffffffffffffffffffffffff161480156123515750600360009054906101000a900473ffffffffffffffffffffffffffffffffffffffff1673ffffffffffffffffffffffffffffffffffffffff1663a5cd761f826008016000815481106122ab576122aa613697565b5b90600052602060002001546040518263ffffffff1660e01b81526004016122d29190613377565b60206040518083038186803b1580156122ea57600080fd5b505afa1580156122fe573d6000803e3d6000fd5b505050506040513d601f19601f8201168201806040525081019061232291906139c0565b73ffffffffffffffffffffffffffffffffffffffff163373ffffffffffffffffffffffffffffffffffffffff16145b612390576040517f08c379a000000000000000000000000000000000000000000000000000000000815260040161238790613d3e565b60405180910390fd5b600081600801600183600801805490506123aa9190613c0f565b815481106123bb576123ba613697565b5b90600052602060002001549050600360009054906101000a900473ffffffffffffffffffffffffffffffffffffffff1673ffffffffffffffffffffffffffffffffffffffff166369e9cae13385846040518463ffffffff1660e01b815260040161242793929190613d6d565b600060405180830381600087803b15801561244157600080fd5b505af1158015612455573d6000803e3d6000fd5b505050508260046000868152602001908152602001600020600a0160006101000a81548173ffffffffffffffffffffffffffffffffffffffff021916908373ffffffffffffffffffffffffffffffffffffffff160217905550808373ffffffffffffffffffffffffffffffffffffffff163373ffffffffffffffffffffffffffffffffffffffff167fddf252ad1be2c89b69c2b068fc378daa952ba7f163c4a11628f55a4df523b3ef60405160405180910390a4505060016000819055505050565b606060006125256001612ae3565b905060008060005b838110156125ce573373ffffffffffffffffffffffffffffffffffffffff166004600060018461255d9190613955565b8152602001908152602001600020600a0160009054906101000a900473ffffffffffffffffffffffffffffffffffffffff1673ffffffffffffffffffffffffffffffffffffffff1614156125bb576001836125b89190613955565b92505b80806125c690613756565b91505061252d565b5060008267ffffffffffffffff8111156125eb576125ea61301b565b5b60405190808252806020026020018201604052801561262457816020015b612611612b07565b8152602001906001900390816126095790505b50905060005b84811015612ad8573373ffffffffffffffffffffffffffffffffffffffff166004600060018461265a9190613955565b8152602001908152602001600020600a0160009054906101000a900473ffffffffffffffffffffffffffffffffffffffff1673ffffffffffffffffffffffffffffffffffffffff161415612ac5576000600460006001846126bb9190613955565b8152602001908152602001600020600001549050600060046000838152602001908152602001600020905080604051806101800160405290816000820154815260200160018201805461270d906136f5565b80601f0160208091040260200160405190810160405280929190818152602001828054612739906136f5565b80156127865780601f1061275b57610100808354040283529160200191612786565b820191906000526020600020905b81548152906001019060200180831161276957829003601f168201915b5050505050815260200160028201805461279f906136f5565b80601f01602080910402602001604051908101604052809291908181526020018280546127cb906136f5565b80156128185780601f106127ed57610100808354040283529160200191612818565b820191906000526020600020905b8154815290600101906020018083116127fb57829003601f168201915b50505050508152602001600382018054612831906136f5565b80601f016020809104026020016040519081016040528092919081815260200182805461285d906136f5565b80156128aa5780601f1061287f576101008083540402835291602001916128aa565b820191906000526020600020905b81548152906001019060200180831161288d57829003601f168201915b505050505081526020016004820180546128c3906136f5565b80601f01602080910402602001604051908101604052809291908181526020018280546128ef906136f5565b801561293c5780601f106129115761010080835404028352916020019161293c565b820191906000526020600020905b81548152906001019060200180831161291f57829003601f168201915b50505050508152602001600582015481526020016006820160009054906101000a900460ff1660ff1660ff16815260200160078201548152602001600882018054806020026020016040519081016040528092919081815260200182805480156129c557602002820191906000526020600020905b8154815260200190600101908083116129b1575b505050505081526020016009820160009054906101000a900473ffffffffffffffffffffffffffffffffffffffff1673ffffffffffffffffffffffffffffffffffffffff1673ffffffffffffffffffffffffffffffffffffffff168152602001600a820160009054906101000a900473ffffffffffffffffffffffffffffffffffffffff1673ffffffffffffffffffffffffffffffffffffffff1673ffffffffffffffffffffffffffffffffffffffff168152602001600a820160149054906101000a900460ff161515151581525050848681518110612aa857612aa7613697565b5b6020026020010181905250600185612ac09190613955565b945050505b8080612ad090613756565b91505061262a565b508094505050505090565b600081600001549050919050565b6001816000016000828254019250508190555050565b604051806101800160405280600081526020016060815260200160608152602001606081526020016060815260200160008152602001600060ff1681526020016000815260200160608152602001600073ffffffffffffffffffffffffffffffffffffffff168152602001600073ffffffffffffffffffffffffffffffffffffffff1681526020016000151581525090565b828054612ba5906136f5565b90600052602060002090601f016020900481019282612bc75760008555612c0e565b82601f10612be057805160ff1916838001178555612c0e565b82800160010185558215612c0e579182015b82811115612c0d578251825591602001919060010190612bf2565b5b509050612c1b9190612c6c565b5090565b828054828255906000526020600020908101928215612c5b579160200282015b82811115612c5a578251825591602001919060010190612c3f565b5b509050612c689190612c6c565b5090565b5b80821115612c85576000816000905550600101612c6d565b5090565b6000604051905090565b600080fd5b600080fd5b6000819050919050565b612cb081612c9d565b8114612cbb57600080fd5b50565b600081359050612ccd81612ca7565b92915050565b600060208284031215612ce957612ce8612c93565b5b6000612cf784828501612cbe565b91505092915050565b612d0981612c9d565b82525050565b600081519050919050565b600082825260208201905092915050565b60005b83811015612d49578082015181840152602081019050612d2e565b83811115612d58576000848401525b50505050565b6000601f19601f8301169050919050565b6000612d7a82612d0f565b612d848185612d1a565b9350612d94818560208601612d2b565b612d9d81612d5e565b840191505092915050565b600060ff82169050919050565b612dbe81612da8565b82525050565b600081519050919050565b600082825260208201905092915050565b6000819050602082019050919050565b6000612dfc8383612d00565b60208301905092915050565b6000602082019050919050565b6000612e2082612dc4565b612e2a8185612dcf565b9350612e3583612de0565b8060005b83811015612e66578151612e4d8882612df0565b9750612e5883612e08565b925050600181019050612e39565b5085935050505092915050565b600073ffffffffffffffffffffffffffffffffffffffff82169050919050565b6000612e9e82612e73565b9050919050565b612eae81612e93565b82525050565b60008115159050919050565b612ec981612eb4565b82525050565b600061018083016000830151612ee86000860182612d00565b5060208301518482036020860152612f008282612d6f565b91505060408301518482036040860152612f1a8282612d6f565b91505060608301518482036060860152612f348282612d6f565b91505060808301518482036080860152612f4e8282612d6f565b91505060a0830151612f6360a0860182612d00565b5060c0830151612f7660c0860182612db5565b5060e0830151612f8960e0860182612d00565b50610100830151848203610100860152612fa38282612e15565b915050610120830151612fba610120860182612ea5565b50610140830151612fcf610140860182612ea5565b50610160830151612fe4610160860182612ec0565b508091505092915050565b600060208201905081810360008301526130098184612ecf565b905092915050565b600080fd5b600080fd5b7f4e487b7100000000000000000000000000000000000000000000000000000000600052604160045260246000fd5b61305382612d5e565b810181811067ffffffffffffffff821117156130725761307161301b565b5b80604052505050565b6000613085612c89565b9050613091828261304a565b919050565b600067ffffffffffffffff8211156130b1576130b061301b565b5b6130ba82612d5e565b9050602081019050919050565b82818337600083830152505050565b60006130e96130e484613096565b61307b565b90508281526020810184848401111561310557613104613016565b5b6131108482856130c7565b509392505050565b600082601f83011261312d5761312c613011565b5b813561313d8482602086016130d6565b91505092915050565b61314f81612da8565b811461315a57600080fd5b50565b60008135905061316c81613146565b92915050565b600067ffffffffffffffff82111561318d5761318c61301b565b5b602082029050602081019050919050565b600080fd5b60006131b66131b184613172565b61307b565b905080838252602082019050602084028301858111156131d9576131d861319e565b5b835b8181101561320257806131ee8882612cbe565b8452602084019350506020810190506131db565b5050509392505050565b600082601f83011261322157613220613011565b5b81356132318482602086016131a3565b91505092915050565b600080600080600080600060e0888a03121561325957613258612c93565b5b600088013567ffffffffffffffff81111561327757613276612c98565b5b6132838a828b01613118565b975050602088013567ffffffffffffffff8111156132a4576132a3612c98565b5b6132b08a828b01613118565b965050604088013567ffffffffffffffff8111156132d1576132d0612c98565b5b6132dd8a828b01613118565b955050606088013567ffffffffffffffff8111156132fe576132fd612c98565b5b61330a8a828b01613118565b945050608061331b8a828b01612cbe565b93505060a061332c8a828b0161315d565b92505060c088013567ffffffffffffffff81111561334d5761334c612c98565b5b6133598a828b0161320c565b91505092959891949750929550565b61337181612c9d565b82525050565b600060208201905061338c6000830184613368565b92915050565b600061339d82612e73565b9050919050565b6133ad81613392565b82525050565b60006020820190506133c860008301846133a4565b92915050565b6133d781613392565b81146133e257600080fd5b50565b6000813590506133f4816133ce565b92915050565b6000602082840312156134105761340f612c93565b5b600061341e848285016133e5565b91505092915050565b600081519050919050565b600082825260208201905092915050565b6000819050602082019050919050565b60006101808301600083015161346c6000860182612d00565b50602083015184820360208601526134848282612d6f565b9150506040830151848203604086015261349e8282612d6f565b915050606083015184820360608601526134b88282612d6f565b915050608083015184820360808601526134d28282612d6f565b91505060a08301516134e760a0860182612d00565b5060c08301516134fa60c0860182612db5565b5060e083015161350d60e0860182612d00565b506101008301518482036101008601526135278282612e15565b91505061012083015161353e610120860182612ea5565b50610140830151613553610140860182612ea5565b50610160830151613568610160860182612ec0565b508091505092915050565b600061357f8383613453565b905092915050565b6000602082019050919050565b600061359f82613427565b6135a98185613432565b9350836020820285016135bb85613443565b8060005b858110156135f757848403895281516135d88582613573565b94506135e383613587565b925060208a019950506001810190506135bf565b50829750879550505050505092915050565b600060208201905081810360008301526136238184613594565b905092915050565b61363481612e93565b811461363f57600080fd5b50565b6000813590506136518161362b565b92915050565b6000806040838503121561366e5761366d612c93565b5b600061367c85828601612cbe565b925050602061368d85828601613642565b9150509250929050565b7f4e487b7100000000000000000000000000000000000000000000000000000000600052603260045260246000fd5b7f4e487b7100000000000000000000000000000000000000000000000000000000600052602260045260246000fd5b6000600282049050600182168061370d57607f821691505b60208210811415613721576137206136c6565b5b50919050565b7f4e487b7100000000000000000000000000000000000000000000000000000000600052601160045260246000fd5b600061376182612c9d565b91507fffffffffffffffffffffffffffffffffffffffffffffffffffffffffffffffff82141561379457613793613727565b5b600182019050919050565b600082825260208201905092915050565b7f5265656e7472616e637947756172643a207265656e7472616e742063616c6c00600082015250565b60006137e6601f8361379f565b91506137f1826137b0565b602082019050919050565b60006020820190508181036000830152613815816137d9565b9050919050565b7f5072696365206d757374206265206174206c6561737420312077656900000000600082015250565b6000613852601c8361379f565b915061385d8261381c565b602082019050919050565b6000602082019050818103600083015261388181613845565b9050919050565b600060608201905061389d60008301866133a4565b6138aa60208301856133a4565b6138b76040830184613368565b949350505050565b60006138ca82612da8565b915060ff8214156138de576138dd613727565b5b600182019050919050565b7f496e76616c6964206974656d2069640000000000000000000000000000000000600082015250565b600061391f600f8361379f565b915061392a826138e9565b602082019050919050565b6000602082019050818103600083015261394e81613912565b9050919050565b600061396082612c9d565b915061396b83612c9d565b9250827fffffffffffffffffffffffffffffffffffffffffffffffffffffffffffffffff038211156139a05761399f613727565b5b828201905092915050565b6000815190506139ba816133ce565b92915050565b6000602082840312156139d6576139d5612c93565b5b60006139e4848285016139ab565b91505092915050565b7f4f6e6c7920746f6b656e206f776e65722063616e206275726e2074686520746f60008201527f6b656e2e00000000000000000000000000000000000000000000000000000000602082015250565b6000613a4960248361379f565b9150613a54826139ed565b604082019050919050565b60006020820190508181036000830152613a7881613a3c565b9050919050565b7f506c65617365207061792074686520656e7469726520707269636520696e206f60008201527f7264657220746f207075726368617365207468652070726f6475637400000000602082015250565b6000613adb603c8361379f565b9150613ae682613a7f565b604082019050919050565b60006020820190508181036000830152613b0a81613ace565b9050919050565b7f50726f64756374206f7574206f662073746f636b000000000000000000000000600082015250565b6000613b4760148361379f565b9150613b5282613b11565b602082019050919050565b60006020820190508181036000830152613b7681613b3a565b9050919050565b7f53656c6c65722063616e6e6f7420627579207468656972206f776e2070726f6460008201527f7563740000000000000000000000000000000000000000000000000000000000602082015250565b6000613bd960238361379f565b9150613be482613b7d565b604082019050919050565b60006020820190508181036000830152613c0881613bcc565b9050919050565b6000613c1a82612c9d565b9150613c2583612c9d565b925082821015613c3857613c37613727565b5b828203905092915050565b7f4e487b7100000000000000000000000000000000000000000000000000000000600052603160045260246000fd5b6000613c7d82612c9d565b9150613c8883612c9d565b9250817fffffffffffffffffffffffffffffffffffffffffffffffffffffffffffffffff0483118215151615613cc157613cc0613727565b5b828202905092915050565b7f596f7520617265206e6f7420746865206f776e6572206f66207468697320707260008201527f6f64756374000000000000000000000000000000000000000000000000000000602082015250565b6000613d2860258361379f565b9150613d3382613ccc565b604082019050919050565b60006020820190508181036000830152613d5781613d1b565b9050919050565b613d6781612e93565b82525050565b6000606082019050613d826000830186613d5e565b613d8f6020830185613d5e565b613d9c6040830184613368565b94935050505056fea2646970667358221220609ce6907ab4b22c938fa4f009b7fccf4426749369b9e9c9da6a0482dac3c2bf64736f6c63430008090033",
  "linkReferences": {},
  "deployedLinkReferences": {}
}