{
  "_format": "hh-sol-artifact-1",
  "contractName": "NFT",
  "sourceName": "contracts/NFT.sol",
  "abi": [
    {
      "inputs": [
        {
          "internalType": "address",
          "name": "ProductsAddress",
          "type": "address"
        }
      ],
      "stateMutability": "nonpayable",
      "type": "constructor"
    },
    {
      "anonymous": false,
      "inputs": [
        {
          "indexed": true,
          "internalType": "address",
          "name": "owner",
          "type": "address"
        },
        {
          "indexed": true,
          "internalType": "address",
          "name": "approved",
          "type": "address"
        },
        {
          "indexed": true,
          "internalType": "uint256",
          "name": "tokenId",
          "type": "uint256"
        }
      ],
      "name": "Approval",
      "type": "event"
    },
    {
      "anonymous": false,
      "inputs": [
        {
          "indexed": true,
          "internalType": "address",
          "name": "owner",
          "type": "address"
        },
        {
          "indexed": true,
          "internalType": "address",
          "name": "operator",
          "type": "address"
        },
        {
          "indexed": false,
          "internalType": "bool",
          "name": "approved",
          "type": "bool"
        }
      ],
      "name": "ApprovalForAll",
      "type": "event"
    },
    {
      "anonymous": false,
      "inputs": [
        {
          "indexed": true,
          "internalType": "address",
          "name": "from",
          "type": "address"
        },
        {
          "indexed": true,
          "internalType": "address",
          "name": "to",
          "type": "address"
        },
        {
          "indexed": true,
          "internalType": "uint256",
          "name": "tokenId",
          "type": "uint256"
        }
      ],
      "name": "Transfer",
      "type": "event"
    },
    {
      "inputs": [
        {
          "internalType": "address",
          "name": "to",
          "type": "address"
        },
        {
          "internalType": "uint256",
          "name": "tokenId",
          "type": "uint256"
        }
      ],
      "name": "approve",
      "outputs": [],
      "stateMutability": "nonpayable",
      "type": "function"
    },
    {
      "inputs": [
        {
          "internalType": "address",
          "name": "owner",
          "type": "address"
        }
      ],
      "name": "balanceOf",
      "outputs": [
        {
          "internalType": "uint256",
          "name": "",
          "type": "uint256"
        }
      ],
      "stateMutability": "view",
      "type": "function"
    },
    {
      "inputs": [
        {
          "internalType": "uint256",
          "name": "tokenId",
          "type": "uint256"
        }
      ],
      "name": "burnToken",
      "outputs": [],
      "stateMutability": "nonpayable",
      "type": "function"
    },
    {
      "inputs": [
        {
          "internalType": "string",
          "name": "tokenURI",
          "type": "string"
        },
        {
          "internalType": "uint256",
          "name": "serialNo",
          "type": "uint256"
        }
      ],
      "name": "createToken",
      "outputs": [],
      "stateMutability": "nonpayable",
      "type": "function"
    },
    {
      "inputs": [
        {
          "internalType": "uint256",
          "name": "tokenId",
          "type": "uint256"
        }
      ],
      "name": "getApproved",
      "outputs": [
        {
          "internalType": "address",
          "name": "",
          "type": "address"
        }
      ],
      "stateMutability": "view",
      "type": "function"
    },
    {
      "inputs": [
        {
          "internalType": "uint256",
          "name": "tokenId",
          "type": "uint256"
        }
      ],
      "name": "getTokenOwner",
      "outputs": [
        {
          "internalType": "address",
          "name": "",
          "type": "address"
        }
      ],
      "stateMutability": "view",
      "type": "function"
    },
    {
      "inputs": [],
      "name": "giveOwnershipToContract",
      "outputs": [],
      "stateMutability": "nonpayable",
      "type": "function"
    },
    {
      "inputs": [
        {
          "internalType": "address",
          "name": "owner",
          "type": "address"
        },
        {
          "internalType": "address",
          "name": "operator",
          "type": "address"
        }
      ],
      "name": "isApprovedForAll",
      "outputs": [
        {
          "internalType": "bool",
          "name": "",
          "type": "bool"
        }
      ],
      "stateMutability": "view",
      "type": "function"
    },
    {
      "inputs": [],
      "name": "name",
      "outputs": [
        {
          "internalType": "string",
          "name": "",
          "type": "string"
        }
      ],
      "stateMutability": "view",
      "type": "function"
    },
    {
      "inputs": [
        {
          "internalType": "uint256",
          "name": "tokenId",
          "type": "uint256"
        }
      ],
      "name": "ownerOf",
      "outputs": [
        {
          "internalType": "address",
          "name": "",
          "type": "address"
        }
      ],
      "stateMutability": "view",
      "type": "function"
    },
    {
      "inputs": [
        {
          "internalType": "address",
          "name": "from",
          "type": "address"
        },
        {
          "internalType": "address",
          "name": "to",
          "type": "address"
        },
        {
          "internalType": "uint256",
          "name": "tokenId",
          "type": "uint256"
        }
      ],
      "name": "safeTransferFrom",
      "outputs": [],
      "stateMutability": "nonpayable",
      "type": "function"
    },
    {
      "inputs": [
        {
          "internalType": "address",
          "name": "from",
          "type": "address"
        },
        {
          "internalType": "address",
          "name": "to",
          "type": "address"
        },
        {
          "internalType": "uint256",
          "name": "tokenId",
          "type": "uint256"
        },
        {
          "internalType": "bytes",
          "name": "data",
          "type": "bytes"
        }
      ],
      "name": "safeTransferFrom",
      "outputs": [],
      "stateMutability": "nonpayable",
      "type": "function"
    },
    {
      "inputs": [
        {
          "internalType": "address",
          "name": "operator",
          "type": "address"
        },
        {
          "internalType": "bool",
          "name": "approved",
          "type": "bool"
        }
      ],
      "name": "setApprovalForAll",
      "outputs": [],
      "stateMutability": "nonpayable",
      "type": "function"
    },
    {
      "inputs": [
        {
          "internalType": "bytes4",
          "name": "interfaceId",
          "type": "bytes4"
        }
      ],
      "name": "supportsInterface",
      "outputs": [
        {
          "internalType": "bool",
          "name": "",
          "type": "bool"
        }
      ],
      "stateMutability": "view",
      "type": "function"
    },
    {
      "inputs": [],
      "name": "symbol",
      "outputs": [
        {
          "internalType": "string",
          "name": "",
          "type": "string"
        }
      ],
      "stateMutability": "view",
      "type": "function"
    },
    {
      "inputs": [
        {
          "internalType": "uint256",
          "name": "tokenId",
          "type": "uint256"
        }
      ],
      "name": "tokenURI",
      "outputs": [
        {
          "internalType": "string",
          "name": "",
          "type": "string"
        }
      ],
      "stateMutability": "view",
      "type": "function"
    },
    {
      "inputs": [
        {
          "internalType": "address",
          "name": "from",
          "type": "address"
        },
        {
          "internalType": "address",
          "name": "to",
          "type": "address"
        },
        {
          "internalType": "uint256",
          "name": "tokenId",
          "type": "uint256"
        }
      ],
      "name": "transferFrom",
      "outputs": [],
      "stateMutability": "nonpayable",
      "type": "function"
    },
    {
      "inputs": [
        {
          "internalType": "address payable",
          "name": "sender",
          "type": "address"
        },
        {
          "internalType": "address payable",
          "name": "receiver",
          "type": "address"
        },
        {
          "internalType": "uint256",
          "name": "tokenId",
          "type": "uint256"
        }
      ],
      "name": "transferNFT",
      "outputs": [],
      "stateMutability": "nonpayable",
      "type": "function"
    }
  ],
  "bytecode": "0x60806040523480156200001157600080fd5b5060405162002e9f38038062002e9f833981810160405281019062000037919062000239565b6040518060400160405280600a81526020017f4e465420546f6b656e73000000000000000000000000000000000000000000008152506040518060400160405280600381526020017f4e465400000000000000000000000000000000000000000000000000000000008152508160009080519060200190620000bb9291906200011f565b508060019080519060200190620000d49291906200011f565b50505080600760006101000a81548173ffffffffffffffffffffffffffffffffffffffff021916908373ffffffffffffffffffffffffffffffffffffffff16021790555050620002d0565b8280546200012d906200029a565b90600052602060002090601f0160209004810192826200015157600085556200019d565b82601f106200016c57805160ff19168380011785556200019d565b828001600101855582156200019d579182015b828111156200019c5782518255916020019190600101906200017f565b5b509050620001ac9190620001b0565b5090565b5b80821115620001cb576000816000905550600101620001b1565b5090565b600080fd5b600073ffffffffffffffffffffffffffffffffffffffff82169050919050565b60006200020182620001d4565b9050919050565b6200021381620001f4565b81146200021f57600080fd5b50565b600081519050620002338162000208565b92915050565b600060208284031215620002525762000251620001cf565b5b6000620002628482850162000222565b91505092915050565b7f4e487b7100000000000000000000000000000000000000000000000000000000600052602260045260246000fd5b60006002820490506001821680620002b357607f821691505b60208210811415620002ca57620002c96200026b565b5b50919050565b612bbf80620002e06000396000f3fe608060405234801561001057600080fd5b50600436106101165760003560e01c806372b3b620116100a2578063a5cd761f11610071578063a5cd761f146102db578063b88d4fde1461030b578063c87b56dd14610327578063e985e9c514610357578063eb1b71b01461038757610116565b806372b3b620146102695780637b47ec1a1461028557806395d89b41146102a1578063a22cb465146102bf57610116565b806323b872dd116100e957806323b872dd146101b557806342842e0e146101d15780636352211e146101ed57806369e9cae11461021d57806370a082311461023957610116565b806301ffc9a71461011b57806306fdde031461014b578063081812fc14610169578063095ea7b314610199575b600080fd5b61013560048036038101906101309190611afe565b610391565b6040516101429190611b46565b60405180910390f35b610153610473565b6040516101609190611bfa565b60405180910390f35b610183600480360381019061017e9190611c52565b610505565b6040516101909190611cc0565b60405180910390f35b6101b360048036038101906101ae9190611d07565b61054b565b005b6101cf60048036038101906101ca9190611d47565b610663565b005b6101eb60048036038101906101e69190611d47565b6106c3565b005b61020760048036038101906102029190611c52565b6106e3565b6040516102149190611cc0565b60405180910390f35b61023760048036038101906102329190611dd8565b610795565b005b610253600480360381019061024e9190611e2b565b6107a5565b6040516102609190611e67565b60405180910390f35b610283600480360381019061027e9190611fb7565b61085d565b005b61029f600480360381019061029a9190611c52565b6108a8565b005b6102a96108b4565b6040516102b69190611bfa565b60405180910390f35b6102d960048036038101906102d4919061203f565b610946565b005b6102f560048036038101906102f09190611c52565b61095c565b6040516103029190611cc0565b60405180910390f35b61032560048036038101906103209190612120565b61096e565b005b610341600480360381019061033c9190611c52565b6109d0565b60405161034e9190611bfa565b60405180910390f35b610371600480360381019061036c91906121a3565b610ae3565b60405161037e9190611b46565b60405180910390f35b61038f610b77565b005b60007f80ac58cd000000000000000000000000000000000000000000000000000000007bffffffffffffffffffffffffffffffffffffffffffffffffffffffff1916827bffffffffffffffffffffffffffffffffffffffffffffffffffffffff1916148061045c57507f5b5e139f000000000000000000000000000000000000000000000000000000007bffffffffffffffffffffffffffffffffffffffffffffffffffffffff1916827bffffffffffffffffffffffffffffffffffffffffffffffffffffffff1916145b8061046c575061046b82610ba6565b5b9050919050565b60606000805461048290612212565b80601f01602080910402602001604051908101604052809291908181526020018280546104ae90612212565b80156104fb5780601f106104d0576101008083540402835291602001916104fb565b820191906000526020600020905b8154815290600101906020018083116104de57829003601f168201915b5050505050905090565b600061051082610c10565b6004600083815260200190815260200160002060009054906101000a900473ffffffffffffffffffffffffffffffffffffffff169050919050565b6000610556826106e3565b90508073ffffffffffffffffffffffffffffffffffffffff168373ffffffffffffffffffffffffffffffffffffffff1614156105c7576040517f08c379a00000000000000000000000000000000000000000000000000000000081526004016105be906122b6565b60405180910390fd5b8073ffffffffffffffffffffffffffffffffffffffff166105e6610c5b565b73ffffffffffffffffffffffffffffffffffffffff16148061061557506106148161060f610c5b565b610ae3565b5b610654576040517f08c379a000000000000000000000000000000000000000000000000000000000815260040161064b90612348565b60405180910390fd5b61065e8383610c63565b505050565b61067461066e610c5b565b82610d1c565b6106b3576040517f08c379a00000000000000000000000000000000000000000000000000000000081526004016106aa906123da565b60405180910390fd5b6106be838383610db1565b505050565b6106de8383836040518060200160405280600081525061096e565b505050565b6000806002600084815260200190815260200160002060009054906101000a900473ffffffffffffffffffffffffffffffffffffffff169050600073ffffffffffffffffffffffffffffffffffffffff168173ffffffffffffffffffffffffffffffffffffffff16141561078c576040517f08c379a000000000000000000000000000000000000000000000000000000000815260040161078390612446565b60405180910390fd5b80915050919050565b6107a0838383610db1565b505050565b60008073ffffffffffffffffffffffffffffffffffffffff168273ffffffffffffffffffffffffffffffffffffffff161415610816576040517f08c379a000000000000000000000000000000000000000000000000000000000815260040161080d906124d8565b60405180910390fd5b600360008373ffffffffffffffffffffffffffffffffffffffff1673ffffffffffffffffffffffffffffffffffffffff168152602001908152602001600020549050919050565b600081905061086c3382611018565b61087681846111f2565b6108a3600760009054906101000a900473ffffffffffffffffffffffffffffffffffffffff166001610946565b505050565b6108b181611266565b50565b6060600180546108c390612212565b80601f01602080910402602001604051908101604052809291908181526020018280546108ef90612212565b801561093c5780601f106109115761010080835404028352916020019161093c565b820191906000526020600020905b81548152906001019060200180831161091f57829003601f168201915b5050505050905090565b610958610951610c5b565b83836112b9565b5050565b6000610967826106e3565b9050919050565b61097f610979610c5b565b83610d1c565b6109be576040517f08c379a00000000000000000000000000000000000000000000000000000000081526004016109b5906123da565b60405180910390fd5b6109ca84848484611426565b50505050565b60606109db82610c10565b60006006600084815260200190815260200160002080546109fb90612212565b80601f0160208091040260200160405190810160405280929190818152602001828054610a2790612212565b8015610a745780601f10610a4957610100808354040283529160200191610a74565b820191906000526020600020905b815481529060010190602001808311610a5757829003601f168201915b505050505090506000610a85611482565b9050600081511415610a9b578192505050610ade565b600082511115610ad0578082604051602001610ab8929190612534565b60405160208183030381529060405292505050610ade565b610ad984611499565b925050505b919050565b6000600560008473ffffffffffffffffffffffffffffffffffffffff1673ffffffffffffffffffffffffffffffffffffffff16815260200190815260200160002060008373ffffffffffffffffffffffffffffffffffffffff1673ffffffffffffffffffffffffffffffffffffffff16815260200190815260200160002060009054906101000a900460ff16905092915050565b610ba4600760009054906101000a900473ffffffffffffffffffffffffffffffffffffffff166001610946565b565b60007f01ffc9a7000000000000000000000000000000000000000000000000000000007bffffffffffffffffffffffffffffffffffffffffffffffffffffffff1916827bffffffffffffffffffffffffffffffffffffffffffffffffffffffff1916149050919050565b610c1981611501565b610c58576040517f08c379a0000000000000000000000000000000000000000000000000000000008152600401610c4f90612446565b60405180910390fd5b50565b600033905090565b816004600083815260200190815260200160002060006101000a81548173ffffffffffffffffffffffffffffffffffffffff021916908373ffffffffffffffffffffffffffffffffffffffff160217905550808273ffffffffffffffffffffffffffffffffffffffff16610cd6836106e3565b73ffffffffffffffffffffffffffffffffffffffff167f8c5be1e5ebec7d5bd14f71427d1e84f3dd0314c0f7b2291e5b200ac8c7c3b92560405160405180910390a45050565b600080610d28836106e3565b90508073ffffffffffffffffffffffffffffffffffffffff168473ffffffffffffffffffffffffffffffffffffffff161480610d6a5750610d698185610ae3565b5b80610da857508373ffffffffffffffffffffffffffffffffffffffff16610d9084610505565b73ffffffffffffffffffffffffffffffffffffffff16145b91505092915050565b8273ffffffffffffffffffffffffffffffffffffffff16610dd1826106e3565b73ffffffffffffffffffffffffffffffffffffffff1614610e27576040517f08c379a0000000000000000000000000000000000000000000000000000000008152600401610e1e906125ca565b60405180910390fd5b600073ffffffffffffffffffffffffffffffffffffffff168273ffffffffffffffffffffffffffffffffffffffff161415610e97576040517f08c379a0000000000000000000000000000000000000000000000000000000008152600401610e8e9061265c565b60405180910390fd5b610ea283838361156d565b610ead600082610c63565b6001600360008573ffffffffffffffffffffffffffffffffffffffff1673ffffffffffffffffffffffffffffffffffffffff1681526020019081526020016000206000828254610efd91906126ab565b925050819055506001600360008473ffffffffffffffffffffffffffffffffffffffff1673ffffffffffffffffffffffffffffffffffffffff1681526020019081526020016000206000828254610f5491906126df565b92505081905550816002600083815260200190815260200160002060006101000a81548173ffffffffffffffffffffffffffffffffffffffff021916908373ffffffffffffffffffffffffffffffffffffffff160217905550808273ffffffffffffffffffffffffffffffffffffffff168473ffffffffffffffffffffffffffffffffffffffff167fddf252ad1be2c89b69c2b068fc378daa952ba7f163c4a11628f55a4df523b3ef60405160405180910390a4611013838383611572565b505050565b600073ffffffffffffffffffffffffffffffffffffffff168273ffffffffffffffffffffffffffffffffffffffff161415611088576040517f08c379a000000000000000000000000000000000000000000000000000000000815260040161107f90612781565b60405180910390fd5b61109181611501565b156110d1576040517f08c379a00000000000000000000000000000000000000000000000000000000081526004016110c8906127ed565b60405180910390fd5b6110dd6000838361156d565b6001600360008473ffffffffffffffffffffffffffffffffffffffff1673ffffffffffffffffffffffffffffffffffffffff168152602001908152602001600020600082825461112d91906126df565b92505081905550816002600083815260200190815260200160002060006101000a81548173ffffffffffffffffffffffffffffffffffffffff021916908373ffffffffffffffffffffffffffffffffffffffff160217905550808273ffffffffffffffffffffffffffffffffffffffff16600073ffffffffffffffffffffffffffffffffffffffff167fddf252ad1be2c89b69c2b068fc378daa952ba7f163c4a11628f55a4df523b3ef60405160405180910390a46111ee60008383611572565b5050565b6111fb82611501565b61123a576040517f08c379a00000000000000000000000000000000000000000000000000000000081526004016112319061287f565b60405180910390fd5b806006600084815260200190815260200160002090805190602001906112619291906119af565b505050565b61126f81611577565b600060066000838152602001908152602001600020805461128f90612212565b9050146112b6576006600082815260200190815260200160002060006112b59190611a35565b5b50565b8173ffffffffffffffffffffffffffffffffffffffff168373ffffffffffffffffffffffffffffffffffffffff161415611328576040517f08c379a000000000000000000000000000000000000000000000000000000000815260040161131f906128eb565b60405180910390fd5b80600560008573ffffffffffffffffffffffffffffffffffffffff1673ffffffffffffffffffffffffffffffffffffffff16815260200190815260200160002060008473ffffffffffffffffffffffffffffffffffffffff1673ffffffffffffffffffffffffffffffffffffffff16815260200190815260200160002060006101000a81548160ff0219169083151502179055508173ffffffffffffffffffffffffffffffffffffffff168373ffffffffffffffffffffffffffffffffffffffff167f17307eab39ab6107e8899845ad3d59bd9653f200f220920489ca2b5937696c31836040516114199190611b46565b60405180910390a3505050565b611431848484610db1565b61143d84848484611694565b61147c576040517f08c379a00000000000000000000000000000000000000000000000000000000081526004016114739061297d565b60405180910390fd5b50505050565b606060405180602001604052806000815250905090565b60606114a482610c10565b60006114ae611482565b905060008151116114ce57604051806020016040528060008152506114f9565b806114d88461182b565b6040516020016114e9929190612534565b6040516020818303038152906040525b915050919050565b60008073ffffffffffffffffffffffffffffffffffffffff166002600084815260200190815260200160002060009054906101000a900473ffffffffffffffffffffffffffffffffffffffff1673ffffffffffffffffffffffffffffffffffffffff1614159050919050565b505050565b505050565b6000611582826106e3565b90506115908160008461156d565b61159b600083610c63565b6001600360008373ffffffffffffffffffffffffffffffffffffffff1673ffffffffffffffffffffffffffffffffffffffff16815260200190815260200160002060008282546115eb91906126ab565b925050819055506002600083815260200190815260200160002060006101000a81549073ffffffffffffffffffffffffffffffffffffffff021916905581600073ffffffffffffffffffffffffffffffffffffffff168273ffffffffffffffffffffffffffffffffffffffff167fddf252ad1be2c89b69c2b068fc378daa952ba7f163c4a11628f55a4df523b3ef60405160405180910390a461169081600084611572565b5050565b60006116b58473ffffffffffffffffffffffffffffffffffffffff1661198c565b1561181e578373ffffffffffffffffffffffffffffffffffffffff1663150b7a026116de610c5b565b8786866040518563ffffffff1660e01b815260040161170094939291906129f2565b602060405180830381600087803b15801561171a57600080fd5b505af192505050801561174b57506040513d601f19601f820116820180604052508101906117489190612a53565b60015b6117ce573d806000811461177b576040519150601f19603f3d011682016040523d82523d6000602084013e611780565b606091505b506000815114156117c6576040517f08c379a00000000000000000000000000000000000000000000000000000000081526004016117bd9061297d565b60405180910390fd5b805181602001fd5b63150b7a0260e01b7bffffffffffffffffffffffffffffffffffffffffffffffffffffffff1916817bffffffffffffffffffffffffffffffffffffffffffffffffffffffff191614915050611823565b600190505b949350505050565b60606000821415611873576040518060400160405280600181526020017f30000000000000000000000000000000000000000000000000000000000000008152509050611987565b600082905060005b600082146118a557808061188e90612a80565b915050600a8261189e9190612af8565b915061187b565b60008167ffffffffffffffff8111156118c1576118c0611e8c565b5b6040519080825280601f01601f1916602001820160405280156118f35781602001600182028036833780820191505090505b5090505b600085146119805760018261190c91906126ab565b9150600a8561191b9190612b29565b603061192791906126df565b60f81b81838151811061193d5761193c612b5a565b5b60200101907effffffffffffffffffffffffffffffffffffffffffffffffffffffffffffff1916908160001a905350600a856119799190612af8565b94506118f7565b8093505050505b919050565b6000808273ffffffffffffffffffffffffffffffffffffffff163b119050919050565b8280546119bb90612212565b90600052602060002090601f0160209004810192826119dd5760008555611a24565b82601f106119f657805160ff1916838001178555611a24565b82800160010185558215611a24579182015b82811115611a23578251825591602001919060010190611a08565b5b509050611a319190611a75565b5090565b508054611a4190612212565b6000825580601f10611a535750611a72565b601f016020900490600052602060002090810190611a719190611a75565b5b50565b5b80821115611a8e576000816000905550600101611a76565b5090565b6000604051905090565b600080fd5b600080fd5b60007fffffffff0000000000000000000000000000000000000000000000000000000082169050919050565b611adb81611aa6565b8114611ae657600080fd5b50565b600081359050611af881611ad2565b92915050565b600060208284031215611b1457611b13611a9c565b5b6000611b2284828501611ae9565b91505092915050565b60008115159050919050565b611b4081611b2b565b82525050565b6000602082019050611b5b6000830184611b37565b92915050565b600081519050919050565b600082825260208201905092915050565b60005b83811015611b9b578082015181840152602081019050611b80565b83811115611baa576000848401525b50505050565b6000601f19601f8301169050919050565b6000611bcc82611b61565b611bd68185611b6c565b9350611be6818560208601611b7d565b611bef81611bb0565b840191505092915050565b60006020820190508181036000830152611c148184611bc1565b905092915050565b6000819050919050565b611c2f81611c1c565b8114611c3a57600080fd5b50565b600081359050611c4c81611c26565b92915050565b600060208284031215611c6857611c67611a9c565b5b6000611c7684828501611c3d565b91505092915050565b600073ffffffffffffffffffffffffffffffffffffffff82169050919050565b6000611caa82611c7f565b9050919050565b611cba81611c9f565b82525050565b6000602082019050611cd56000830184611cb1565b92915050565b611ce481611c9f565b8114611cef57600080fd5b50565b600081359050611d0181611cdb565b92915050565b60008060408385031215611d1e57611d1d611a9c565b5b6000611d2c85828601611cf2565b9250506020611d3d85828601611c3d565b9150509250929050565b600080600060608486031215611d6057611d5f611a9c565b5b6000611d6e86828701611cf2565b9350506020611d7f86828701611cf2565b9250506040611d9086828701611c3d565b9150509250925092565b6000611da582611c7f565b9050919050565b611db581611d9a565b8114611dc057600080fd5b50565b600081359050611dd281611dac565b92915050565b600080600060608486031215611df157611df0611a9c565b5b6000611dff86828701611dc3565b9350506020611e1086828701611dc3565b9250506040611e2186828701611c3d565b9150509250925092565b600060208284031215611e4157611e40611a9c565b5b6000611e4f84828501611cf2565b91505092915050565b611e6181611c1c565b82525050565b6000602082019050611e7c6000830184611e58565b92915050565b600080fd5b600080fd5b7f4e487b7100000000000000000000000000000000000000000000000000000000600052604160045260246000fd5b611ec482611bb0565b810181811067ffffffffffffffff82111715611ee357611ee2611e8c565b5b80604052505050565b6000611ef6611a92565b9050611f028282611ebb565b919050565b600067ffffffffffffffff821115611f2257611f21611e8c565b5b611f2b82611bb0565b9050602081019050919050565b82818337600083830152505050565b6000611f5a611f5584611f07565b611eec565b905082815260208101848484011115611f7657611f75611e87565b5b611f81848285611f38565b509392505050565b600082601f830112611f9e57611f9d611e82565b5b8135611fae848260208601611f47565b91505092915050565b60008060408385031215611fce57611fcd611a9c565b5b600083013567ffffffffffffffff811115611fec57611feb611aa1565b5b611ff885828601611f89565b925050602061200985828601611c3d565b9150509250929050565b61201c81611b2b565b811461202757600080fd5b50565b60008135905061203981612013565b92915050565b6000806040838503121561205657612055611a9c565b5b600061206485828601611cf2565b92505060206120758582860161202a565b9150509250929050565b600067ffffffffffffffff82111561209a57612099611e8c565b5b6120a382611bb0565b9050602081019050919050565b60006120c36120be8461207f565b611eec565b9050828152602081018484840111156120df576120de611e87565b5b6120ea848285611f38565b509392505050565b600082601f83011261210757612106611e82565b5b81356121178482602086016120b0565b91505092915050565b6000806000806080858703121561213a57612139611a9c565b5b600061214887828801611cf2565b945050602061215987828801611cf2565b935050604061216a87828801611c3d565b925050606085013567ffffffffffffffff81111561218b5761218a611aa1565b5b612197878288016120f2565b91505092959194509250565b600080604083850312156121ba576121b9611a9c565b5b60006121c885828601611cf2565b92505060206121d985828601611cf2565b9150509250929050565b7f4e487b7100000000000000000000000000000000000000000000000000000000600052602260045260246000fd5b6000600282049050600182168061222a57607f821691505b6020821081141561223e5761223d6121e3565b5b50919050565b7f4552433732313a20617070726f76616c20746f2063757272656e74206f776e6560008201527f7200000000000000000000000000000000000000000000000000000000000000602082015250565b60006122a0602183611b6c565b91506122ab82612244565b604082019050919050565b600060208201905081810360008301526122cf81612293565b9050919050565b7f4552433732313a20617070726f76652063616c6c6572206973206e6f7420746f60008201527f6b656e206f776e6572206e6f7220617070726f76656420666f7220616c6c0000602082015250565b6000612332603e83611b6c565b915061233d826122d6565b604082019050919050565b6000602082019050818103600083015261236181612325565b9050919050565b7f4552433732313a2063616c6c6572206973206e6f7420746f6b656e206f776e6560008201527f72206e6f7220617070726f766564000000000000000000000000000000000000602082015250565b60006123c4602e83611b6c565b91506123cf82612368565b604082019050919050565b600060208201905081810360008301526123f3816123b7565b9050919050565b7f4552433732313a20696e76616c696420746f6b656e2049440000000000000000600082015250565b6000612430601883611b6c565b915061243b826123fa565b602082019050919050565b6000602082019050818103600083015261245f81612423565b9050919050565b7f4552433732313a2061646472657373207a65726f206973206e6f74206120766160008201527f6c6964206f776e65720000000000000000000000000000000000000000000000602082015250565b60006124c2602983611b6c565b91506124cd82612466565b604082019050919050565b600060208201905081810360008301526124f1816124b5565b9050919050565b600081905092915050565b600061250e82611b61565b61251881856124f8565b9350612528818560208601611b7d565b80840191505092915050565b60006125408285612503565b915061254c8284612503565b91508190509392505050565b7f4552433732313a207472616e736665722066726f6d20696e636f72726563742060008201527f6f776e6572000000000000000000000000000000000000000000000000000000602082015250565b60006125b4602583611b6c565b91506125bf82612558565b604082019050919050565b600060208201905081810360008301526125e3816125a7565b9050919050565b7f4552433732313a207472616e7366657220746f20746865207a65726f2061646460008201527f7265737300000000000000000000000000000000000000000000000000000000602082015250565b6000612646602483611b6c565b9150612651826125ea565b604082019050919050565b6000602082019050818103600083015261267581612639565b9050919050565b7f4e487b7100000000000000000000000000000000000000000000000000000000600052601160045260246000fd5b60006126b682611c1c565b91506126c183611c1c565b9250828210156126d4576126d361267c565b5b828203905092915050565b60006126ea82611c1c565b91506126f583611c1c565b9250827fffffffffffffffffffffffffffffffffffffffffffffffffffffffffffffffff0382111561272a5761272961267c565b5b828201905092915050565b7f4552433732313a206d696e7420746f20746865207a65726f2061646472657373600082015250565b600061276b602083611b6c565b915061277682612735565b602082019050919050565b6000602082019050818103600083015261279a8161275e565b9050919050565b7f4552433732313a20746f6b656e20616c7265616479206d696e74656400000000600082015250565b60006127d7601c83611b6c565b91506127e2826127a1565b602082019050919050565b60006020820190508181036000830152612806816127ca565b9050919050565b7f45524337323155524953746f726167653a2055524920736574206f66206e6f6e60008201527f6578697374656e7420746f6b656e000000000000000000000000000000000000602082015250565b6000612869602e83611b6c565b91506128748261280d565b604082019050919050565b600060208201905081810360008301526128988161285c565b9050919050565b7f4552433732313a20617070726f766520746f2063616c6c657200000000000000600082015250565b60006128d5601983611b6c565b91506128e08261289f565b602082019050919050565b60006020820190508181036000830152612904816128c8565b9050919050565b7f4552433732313a207472616e7366657220746f206e6f6e20455243373231526560008201527f63656976657220696d706c656d656e7465720000000000000000000000000000602082015250565b6000612967603283611b6c565b91506129728261290b565b604082019050919050565b600060208201905081810360008301526129968161295a565b9050919050565b600081519050919050565b600082825260208201905092915050565b60006129c48261299d565b6129ce81856129a8565b93506129de818560208601611b7d565b6129e781611bb0565b840191505092915050565b6000608082019050612a076000830187611cb1565b612a146020830186611cb1565b612a216040830185611e58565b8181036060830152612a3381846129b9565b905095945050505050565b600081519050612a4d81611ad2565b92915050565b600060208284031215612a6957612a68611a9c565b5b6000612a7784828501612a3e565b91505092915050565b6000612a8b82611c1c565b91507fffffffffffffffffffffffffffffffffffffffffffffffffffffffffffffffff821415612abe57612abd61267c565b5b600182019050919050565b7f4e487b7100000000000000000000000000000000000000000000000000000000600052601260045260246000fd5b6000612b0382611c1c565b9150612b0e83611c1c565b925082612b1e57612b1d612ac9565b5b828204905092915050565b6000612b3482611c1c565b9150612b3f83611c1c565b925082612b4f57612b4e612ac9565b5b828206905092915050565b7f4e487b7100000000000000000000000000000000000000000000000000000000600052603260045260246000fdfea2646970667358221220427b52d4fb85aeee178a19349afe918b9d306a6211e1fa879f7eb74df92b470364736f6c63430008090033",
  "linkReferences": {},
  "deployedLinkReferences": {}
}